{
  "_format": "hh-sol-artifact-1",
  "contractName": "MyEpicNFT",
  "sourceName": "contracts/MyEpicNft.sol",
  "abi": [
    {
      "inputs": [],
      "stateMutability": "nonpayable",
      "type": "constructor"
    },
    {
      "anonymous": false,
      "inputs": [
        {
          "indexed": true,
          "internalType": "address",
          "name": "owner",
          "type": "address"
        },
        {
          "indexed": true,
          "internalType": "address",
          "name": "approved",
          "type": "address"
        },
        {
          "indexed": true,
          "internalType": "uint256",
          "name": "tokenId",
          "type": "uint256"
        }
      ],
      "name": "Approval",
      "type": "event"
    },
    {
      "anonymous": false,
      "inputs": [
        {
          "indexed": true,
          "internalType": "address",
          "name": "owner",
          "type": "address"
        },
        {
          "indexed": true,
          "internalType": "address",
          "name": "operator",
          "type": "address"
        },
        {
          "indexed": false,
          "internalType": "bool",
          "name": "approved",
          "type": "bool"
        }
      ],
      "name": "ApprovalForAll",
      "type": "event"
    },
    {
      "anonymous": false,
      "inputs": [
        {
          "indexed": false,
          "internalType": "address",
          "name": "sender",
          "type": "address"
        },
        {
          "indexed": false,
          "internalType": "uint256",
          "name": "tokenId",
          "type": "uint256"
        }
      ],
      "name": "NewEpicNFTMinted",
      "type": "event"
    },
    {
      "anonymous": false,
      "inputs": [
        {
          "indexed": true,
          "internalType": "address",
          "name": "from",
          "type": "address"
        },
        {
          "indexed": true,
          "internalType": "address",
          "name": "to",
          "type": "address"
        },
        {
          "indexed": true,
          "internalType": "uint256",
          "name": "tokenId",
          "type": "uint256"
        }
      ],
      "name": "Transfer",
      "type": "event"
    },
    {
      "inputs": [
        {
          "internalType": "address",
          "name": "to",
          "type": "address"
        },
        {
          "internalType": "uint256",
          "name": "tokenId",
          "type": "uint256"
        }
      ],
      "name": "approve",
      "outputs": [],
      "stateMutability": "nonpayable",
      "type": "function"
    },
    {
      "inputs": [
        {
          "internalType": "address",
          "name": "owner",
          "type": "address"
        }
      ],
      "name": "balanceOf",
      "outputs": [
        {
          "internalType": "uint256",
          "name": "",
          "type": "uint256"
        }
      ],
      "stateMutability": "view",
      "type": "function"
    },
    {
      "inputs": [
        {
          "internalType": "uint256",
          "name": "tokenId",
          "type": "uint256"
        }
      ],
      "name": "getApproved",
      "outputs": [
        {
          "internalType": "address",
          "name": "",
          "type": "address"
        }
      ],
      "stateMutability": "view",
      "type": "function"
    },
    {
      "inputs": [],
      "name": "getMintedCount",
      "outputs": [
        {
          "internalType": "uint256",
          "name": "",
          "type": "uint256"
        }
      ],
      "stateMutability": "view",
      "type": "function"
    },
    {
      "inputs": [
        {
          "internalType": "address",
          "name": "owner",
          "type": "address"
        },
        {
          "internalType": "address",
          "name": "operator",
          "type": "address"
        }
      ],
      "name": "isApprovedForAll",
      "outputs": [
        {
          "internalType": "bool",
          "name": "",
          "type": "bool"
        }
      ],
      "stateMutability": "view",
      "type": "function"
    },
    {
      "inputs": [],
      "name": "makeAnEpicNFT",
      "outputs": [],
      "stateMutability": "nonpayable",
      "type": "function"
    },
    {
      "inputs": [],
      "name": "name",
      "outputs": [
        {
          "internalType": "string",
          "name": "",
          "type": "string"
        }
      ],
      "stateMutability": "view",
      "type": "function"
    },
    {
      "inputs": [
        {
          "internalType": "uint256",
          "name": "tokenId",
          "type": "uint256"
        }
      ],
      "name": "ownerOf",
      "outputs": [
        {
          "internalType": "address",
          "name": "",
          "type": "address"
        }
      ],
      "stateMutability": "view",
      "type": "function"
    },
    {
      "inputs": [
        {
          "internalType": "uint256",
          "name": "tokenId",
          "type": "uint256"
        }
      ],
      "name": "pickRandomBlackMove",
      "outputs": [
        {
          "internalType": "string",
          "name": "",
          "type": "string"
        }
      ],
      "stateMutability": "view",
      "type": "function"
    },
    {
      "inputs": [
        {
          "internalType": "uint256",
          "name": "tokenId",
          "type": "uint256"
        }
      ],
      "name": "pickRandomColor",
      "outputs": [
        {
          "internalType": "string",
          "name": "",
          "type": "string"
        }
      ],
      "stateMutability": "view",
      "type": "function"
    },
    {
      "inputs": [
        {
          "internalType": "uint256",
          "name": "tokenId",
          "type": "uint256"
        }
      ],
      "name": "pickRandomWhiteMove",
      "outputs": [
        {
          "internalType": "string",
          "name": "",
          "type": "string"
        }
      ],
      "stateMutability": "view",
      "type": "function"
    },
    {
      "inputs": [
        {
          "internalType": "address",
          "name": "from",
          "type": "address"
        },
        {
          "internalType": "address",
          "name": "to",
          "type": "address"
        },
        {
          "internalType": "uint256",
          "name": "tokenId",
          "type": "uint256"
        }
      ],
      "name": "safeTransferFrom",
      "outputs": [],
      "stateMutability": "nonpayable",
      "type": "function"
    },
    {
      "inputs": [
        {
          "internalType": "address",
          "name": "from",
          "type": "address"
        },
        {
          "internalType": "address",
          "name": "to",
          "type": "address"
        },
        {
          "internalType": "uint256",
          "name": "tokenId",
          "type": "uint256"
        },
        {
          "internalType": "bytes",
          "name": "_data",
          "type": "bytes"
        }
      ],
      "name": "safeTransferFrom",
      "outputs": [],
      "stateMutability": "nonpayable",
      "type": "function"
    },
    {
      "inputs": [
        {
          "internalType": "address",
          "name": "operator",
          "type": "address"
        },
        {
          "internalType": "bool",
          "name": "approved",
          "type": "bool"
        }
      ],
      "name": "setApprovalForAll",
      "outputs": [],
      "stateMutability": "nonpayable",
      "type": "function"
    },
    {
      "inputs": [
        {
          "internalType": "bytes4",
          "name": "interfaceId",
          "type": "bytes4"
        }
      ],
      "name": "supportsInterface",
      "outputs": [
        {
          "internalType": "bool",
          "name": "",
          "type": "bool"
        }
      ],
      "stateMutability": "view",
      "type": "function"
    },
    {
      "inputs": [],
      "name": "symbol",
      "outputs": [
        {
          "internalType": "string",
          "name": "",
          "type": "string"
        }
      ],
      "stateMutability": "view",
      "type": "function"
    },
    {
      "inputs": [
        {
          "internalType": "uint256",
          "name": "tokenId",
          "type": "uint256"
        }
      ],
      "name": "tokenURI",
      "outputs": [
        {
          "internalType": "string",
          "name": "",
          "type": "string"
        }
      ],
      "stateMutability": "view",
      "type": "function"
    },
    {
      "inputs": [
        {
          "internalType": "address",
          "name": "from",
          "type": "address"
        },
        {
          "internalType": "address",
          "name": "to",
          "type": "address"
        },
        {
          "internalType": "uint256",
          "name": "tokenId",
          "type": "uint256"
        }
      ],
      "name": "transferFrom",
      "outputs": [],
      "stateMutability": "nonpayable",
      "type": "function"
    }
  ],
  "bytecode": "0x6080604052602860085560405180610100016040528060d3815260200162004a7560d39139600990805190602001906200003b92919062000d29565b5060405180608001604052806056815260200162004b4860569139600a90805190602001906200006d92919062000d29565b506040518061028001604052806040518060400160405280600381526020017f613320000000000000000000000000000000000000000000000000000000000081525081526020016040518060400160405280600381526020017f623320000000000000000000000000000000000000000000000000000000000081525081526020016040518060400160405280600381526020017f633320000000000000000000000000000000000000000000000000000000000081525081526020016040518060400160405280600381526020017f643320000000000000000000000000000000000000000000000000000000000081525081526020016040518060400160405280600381526020017f653320000000000000000000000000000000000000000000000000000000000081525081526020016040518060400160405280600381526020017f663320000000000000000000000000000000000000000000000000000000000081525081526020016040518060400160405280600381526020017f673320000000000000000000000000000000000000000000000000000000000081525081526020016040518060400160405280600381526020017f683320000000000000000000000000000000000000000000000000000000000081525081526020016040518060400160405280600381526020017f613420000000000000000000000000000000000000000000000000000000000081525081526020016040518060400160405280600381526020017f623420000000000000000000000000000000000000000000000000000000000081525081526020016040518060400160405280600381526020017f633420000000000000000000000000000000000000000000000000000000000081525081526020016040518060400160405280600381526020017f643420000000000000000000000000000000000000000000000000000000000081525081526020016040518060400160405280600381526020017f653420000000000000000000000000000000000000000000000000000000000081525081526020016040518060400160405280600381526020017f663420000000000000000000000000000000000000000000000000000000000081525081526020016040518060400160405280600381526020017f673420000000000000000000000000000000000000000000000000000000000081525081526020016040518060400160405280600381526020017f683420000000000000000000000000000000000000000000000000000000000081525081526020016040518060400160405280600381526020017f4e6133000000000000000000000000000000000000000000000000000000000081525081526020016040518060400160405280600381526020017f4e6333000000000000000000000000000000000000000000000000000000000081525081526020016040518060400160405280600381526020017f4e6633000000000000000000000000000000000000000000000000000000000081525081526020016040518060400160405280600381526020017f4e68330000000000000000000000000000000000000000000000000000000000815250815250600b9060146200052692919062000dba565b506040518061028001604052806040518060400160405280600281526020017f613500000000000000000000000000000000000000000000000000000000000081525081526020016040518060400160405280600281526020017f623500000000000000000000000000000000000000000000000000000000000081525081526020016040518060400160405280600281526020017f633500000000000000000000000000000000000000000000000000000000000081525081526020016040518060400160405280600281526020017f643500000000000000000000000000000000000000000000000000000000000081525081526020016040518060400160405280600281526020017f653500000000000000000000000000000000000000000000000000000000000081525081526020016040518060400160405280600281526020017f663500000000000000000000000000000000000000000000000000000000000081525081526020016040518060400160405280600281526020017f673500000000000000000000000000000000000000000000000000000000000081525081526020016040518060400160405280600281526020017f683500000000000000000000000000000000000000000000000000000000000081525081526020016040518060400160405280600281526020017f613600000000000000000000000000000000000000000000000000000000000081525081526020016040518060400160405280600281526020017f623600000000000000000000000000000000000000000000000000000000000081525081526020016040518060400160405280600281526020017f633600000000000000000000000000000000000000000000000000000000000081525081526020016040518060400160405280600281526020017f643600000000000000000000000000000000000000000000000000000000000081525081526020016040518060400160405280600281526020017f653600000000000000000000000000000000000000000000000000000000000081525081526020016040518060400160405280600281526020017f663600000000000000000000000000000000000000000000000000000000000081525081526020016040518060400160405280600281526020017f673600000000000000000000000000000000000000000000000000000000000081525081526020016040518060400160405280600281526020017f683600000000000000000000000000000000000000000000000000000000000081525081526020016040518060400160405280600381526020017f4e6136000000000000000000000000000000000000000000000000000000000081525081526020016040518060400160405280600381526020017f4e6336000000000000000000000000000000000000000000000000000000000081525081526020016040518060400160405280600381526020017f4e6636000000000000000000000000000000000000000000000000000000000081525081526020016040518060400160405280600381526020017f4e68360000000000000000000000000000000000000000000000000000000000815250815250600c906014620009df92919062000dba565b506040518060c001604052806040518060400160405280600381526020017f726564000000000000000000000000000000000000000000000000000000000081525081526020016040518060400160405280600781526020017f233038433241380000000000000000000000000000000000000000000000000081525081526020016040518060400160405280600581526020017f626c61636b00000000000000000000000000000000000000000000000000000081525081526020016040518060400160405280600681526020017f79656c6c6f77000000000000000000000000000000000000000000000000000081525081526020016040518060400160405280600481526020017f626c75650000000000000000000000000000000000000000000000000000000081525081526020016040518060400160405280600581526020017f677265656e000000000000000000000000000000000000000000000000000000815250815250600d90600662000b5d92919062000e21565b5034801562000b6b57600080fd5b506040518060400160405280600881526020017f506c6965734e46540000000000000000000000000000000000000000000000008152506040518060400160405280600581526020017f4348455353000000000000000000000000000000000000000000000000000000815250816000908051906020019062000bf092919062000d29565b50806001908051906020019062000c0992919062000d29565b50505062000c576040518060400160405280601581526020017f4e465420636f6e7472616374206f6e20636861696e000000000000000000000081525062000c5d60201b620011601760201c565b62001042565b62000cfd8160405160240162000c74919062000f56565b6040516020818303038152906040527f41304fac000000000000000000000000000000000000000000000000000000007bffffffffffffffffffffffffffffffffffffffffffffffffffffffff19166020820180517bffffffffffffffffffffffffffffffffffffffffffffffffffffffff838183161783525050505062000d0060201b60201c565b50565b60008151905060006a636f6e736f6c652e6c6f679050602083016000808483855afa5050505050565b82805462000d379062000fcc565b90600052602060002090601f01602090048101928262000d5b576000855562000da7565b82601f1062000d7657805160ff191683800117855562000da7565b8280016001018555821562000da7579182015b8281111562000da657825182559160200191906001019062000d89565b5b50905062000db6919062000e88565b5090565b82805482825590600052602060002090810192821562000e0e579160200282015b8281111562000e0d57825182908051906020019062000dfc92919062000d29565b509160200191906001019062000ddb565b5b50905062000e1d919062000ea7565b5090565b82805482825590600052602060002090810192821562000e75579160200282015b8281111562000e7457825182908051906020019062000e6392919062000d29565b509160200191906001019062000e42565b5b50905062000e84919062000ea7565b5090565b5b8082111562000ea357600081600090555060010162000e89565b5090565b5b8082111562000ecb576000818162000ec1919062000ecf565b5060010162000ea8565b5090565b50805462000edd9062000fcc565b6000825580601f1062000ef1575062000f12565b601f01602090049060005260206000209081019062000f11919062000e88565b5b50565b600062000f228262000f7a565b62000f2e818562000f85565b935062000f4081856020860162000f96565b62000f4b8162001031565b840191505092915050565b6000602082019050818103600083015262000f72818462000f15565b905092915050565b600081519050919050565b600082825260208201905092915050565b60005b8381101562000fb657808201518184015260208101905062000f99565b8381111562000fc6576000848401525b50505050565b6000600282049050600182168062000fe557607f821691505b6020821081141562000ffc5762000ffb62001002565b5b50919050565b7f4e487b7100000000000000000000000000000000000000000000000000000000600052602260045260246000fd5b6000601f19601f8301169050919050565b613a2380620010526000396000f3fe608060405234801561001057600080fd5b50600436106101165760003560e01c806364be4c00116100a2578063b88d4fde11610071578063b88d4fde14610317578063c87b56dd14610333578063de9d132f14610363578063e985e9c51461036d578063ebc9bd3b1461039d57610116565b806364be4c001461027d57806370a08231146102ad57806395d89b41146102dd578063a22cb465146102fb57610116565b806323b872dd116100e957806323b872dd146101b557806334663da7146101d157806342842e0e14610201578063514dc8c61461021d5780636352211e1461024d57610116565b806301ffc9a71461011b57806306fdde031461014b578063081812fc14610169578063095ea7b314610199575b600080fd5b610135600480360381019061013091906125fc565b6103bb565b6040516101429190613269565b60405180910390f35b61015361049d565b6040516101609190613284565b60405180910390f35b610183600480360381019061017e919061264e565b61052f565b60405161019091906131d9565b60405180910390f35b6101b360048036038101906101ae91906125c0565b6105b4565b005b6101cf60048036038101906101ca91906124ba565b6106cc565b005b6101eb60048036038101906101e6919061264e565b61072c565b6040516101f89190613284565b60405180910390f35b61021b600480360381019061021691906124ba565b61084a565b005b6102376004803603810190610232919061264e565b61086a565b6040516102449190613284565b60405180910390f35b6102676004803603810190610262919061264e565b610988565b60405161027491906131d9565b60405180910390f35b6102976004803603810190610292919061264e565b610a3a565b6040516102a49190613284565b60405180910390f35b6102c760048036038101906102c29190612455565b610b58565b6040516102d49190613514565b60405180910390f35b6102e5610c10565b6040516102f29190613284565b60405180910390f35b61031560048036038101906103109190612584565b610ca2565b005b610331600480360381019061032c9190612509565b610cb8565b005b61034d6004803603810190610348919061264e565b610d1a565b60405161035a9190613284565b60405180910390f35b61036b610e6c565b005b6103876004803603810190610382919061247e565b6110bb565b6040516103949190613269565b60405180910390f35b6103a561114f565b6040516103b29190613514565b60405180910390f35b60007f80ac58cd000000000000000000000000000000000000000000000000000000007bffffffffffffffffffffffffffffffffffffffffffffffffffffffff1916827bffffffffffffffffffffffffffffffffffffffffffffffffffffffff1916148061048657507f5b5e139f000000000000000000000000000000000000000000000000000000007bffffffffffffffffffffffffffffffffffffffffffffffffffffffff1916827bffffffffffffffffffffffffffffffffffffffffffffffffffffffff1916145b806104965750610495826111f9565b5b9050919050565b6060600080546104ac906137b3565b80601f01602080910402602001604051908101604052809291908181526020018280546104d8906137b3565b80156105255780601f106104fa57610100808354040283529160200191610525565b820191906000526020600020905b81548152906001019060200180831161050857829003601f168201915b5050505050905090565b600061053a82611263565b610579576040517f08c379a000000000000000000000000000000000000000000000000000000000815260040161057090613474565b60405180910390fd5b6004600083815260200190815260200160002060009054906101000a900473ffffffffffffffffffffffffffffffffffffffff169050919050565b60006105bf82610988565b90508073ffffffffffffffffffffffffffffffffffffffff168373ffffffffffffffffffffffffffffffffffffffff161415610630576040517f08c379a0000000000000000000000000000000000000000000000000000000008152600401610627906134d4565b60405180910390fd5b8073ffffffffffffffffffffffffffffffffffffffff1661064f6112cf565b73ffffffffffffffffffffffffffffffffffffffff16148061067e575061067d816106786112cf565b6110bb565b5b6106bd576040517f08c379a00000000000000000000000000000000000000000000000000000000081526004016106b4906133b4565b60405180910390fd5b6106c783836112d7565b505050565b6106dd6106d76112cf565b82611390565b61071c576040517f08c379a0000000000000000000000000000000000000000000000000000000008152600401610713906134f4565b60405180910390fd5b61072783838361146e565b505050565b6060600061076061073c846116ca565b60405160200161074c919061310c565b604051602081830303815290604052611877565b9050600c8054905081610773919061382e565b9050600c81815481106107af577f4e487b7100000000000000000000000000000000000000000000000000000000600052603260045260246000fd5b9060005260206000200180546107c4906137b3565b80601f01602080910402602001604051908101604052809291908181526020018280546107f0906137b3565b801561083d5780601f106108125761010080835404028352916020019161083d565b820191906000526020600020905b81548152906001019060200180831161082057829003601f168201915b5050505050915050919050565b61086583838360405180602001604052806000815250610cb8565b505050565b6060600061089e61087a846116ca565b60405160200161088a91906131b7565b604051602081830303815290604052611877565b9050600d80549050816108b1919061382e565b9050600d81815481106108ed577f4e487b7100000000000000000000000000000000000000000000000000000000600052603260045260246000fd5b906000526020600020018054610902906137b3565b80601f016020809104026020016040519081016040528092919081815260200182805461092e906137b3565b801561097b5780601f106109505761010080835404028352916020019161097b565b820191906000526020600020905b81548152906001019060200180831161095e57829003601f168201915b5050505050915050919050565b6000806002600084815260200190815260200160002060009054906101000a900473ffffffffffffffffffffffffffffffffffffffff169050600073ffffffffffffffffffffffffffffffffffffffff168173ffffffffffffffffffffffffffffffffffffffff161415610a31576040517f08c379a0000000000000000000000000000000000000000000000000000000008152600401610a28906133f4565b60405180910390fd5b80915050919050565b60606000610a6e610a4a846116ca565b604051602001610a5a9190613195565b604051602081830303815290604052611877565b9050600b8054905081610a81919061382e565b9050600b8181548110610abd577f4e487b7100000000000000000000000000000000000000000000000000000000600052603260045260246000fd5b906000526020600020018054610ad2906137b3565b80601f0160208091040260200160405190810160405280929190818152602001828054610afe906137b3565b8015610b4b5780601f10610b2057610100808354040283529160200191610b4b565b820191906000526020600020905b815481529060010190602001808311610b2e57829003601f168201915b5050505050915050919050565b60008073ffffffffffffffffffffffffffffffffffffffff168273ffffffffffffffffffffffffffffffffffffffff161415610bc9576040517f08c379a0000000000000000000000000000000000000000000000000000000008152600401610bc0906133d4565b60405180910390fd5b600360008373ffffffffffffffffffffffffffffffffffffffff1673ffffffffffffffffffffffffffffffffffffffff168152602001908152602001600020549050919050565b606060018054610c1f906137b3565b80601f0160208091040260200160405190810160405280929190818152602001828054610c4b906137b3565b8015610c985780601f10610c6d57610100808354040283529160200191610c98565b820191906000526020600020905b815481529060010190602001808311610c7b57829003601f168201915b5050505050905090565b610cb4610cad6112cf565b83836118aa565b5050565b610cc9610cc36112cf565b83611390565b610d08576040517f08c379a0000000000000000000000000000000000000000000000000000000008152600401610cff906134f4565b60405180910390fd5b610d1484848484611a17565b50505050565b6060610d2582611263565b610d64576040517f08c379a0000000000000000000000000000000000000000000000000000000008152600401610d5b90613454565b60405180910390fd5b6000600660008481526020019081526020016000208054610d84906137b3565b80601f0160208091040260200160405190810160405280929190818152602001828054610db0906137b3565b8015610dfd5780601f10610dd257610100808354040283529160200191610dfd565b820191906000526020600020905b815481529060010190602001808311610de057829003601f168201915b505050505090506000610e0e611a73565b9050600081511415610e24578192505050610e67565b600082511115610e59578082604051602001610e4192919061307d565b60405160208183030381529060405292505050610e67565b610e6284611a8a565b925050505b919050565b6000610e786007611b31565b90506000610e8582610a3a565b90506000610e928361072c565b905060008282604051602001610ea992919061307d565b60405160208183030381529060405290506000610ec58561086a565b90506000600982600a85604051602001610ee294939291906130a1565b60405160208183030381529060405290506000610f2784610f0284611b3f565b604051602001610f1392919061312e565b604051602081830303815290604052611b3f565b9050600081604051602001610f3c9190613173565b6040516020818303038152906040529050610f8b6040518060400160405280601581526020017f0a2d2d2d2d2d2d2d2d2d2d2d2d2d2d2d2d2d2d2d2d0000000000000000000000815250611160565b610fb381604051602001610f9f91906130ea565b604051602081830303815290604052611160565b610ff16040518060400160405280601581526020017f2d2d2d2d2d2d2d2d2d2d2d2d2d2d2d2d2d2d2d2d0a0000000000000000000000815250611160565b610ffb3389611cfd565b6110058882611d1b565b611028604051806060016040528060258152602001613989602591398933611d8f565b6110326007611e2e565b6110786040518060400160405280601381526020017f546f74616c204e465473206d696e7465643a200000000000000000000000000081525061107361114f565b611e44565b7febb98688741ffa4c7589bf325de30cf7becb63de567842e1ccdb6cb949fdc82c33896040516110a9929190613240565b60405180910390a15050505050505050565b6000600560008473ffffffffffffffffffffffffffffffffffffffff1673ffffffffffffffffffffffffffffffffffffffff16815260200190815260200160002060008373ffffffffffffffffffffffffffffffffffffffff1673ffffffffffffffffffffffffffffffffffffffff16815260200190815260200160002060009054906101000a900460ff16905092915050565b600061115b6007611b31565b905090565b6111f6816040516024016111749190613284565b6040516020818303038152906040527f41304fac000000000000000000000000000000000000000000000000000000007bffffffffffffffffffffffffffffffffffffffffffffffffffffffff19166020820180517bffffffffffffffffffffffffffffffffffffffffffffffffffffffff8381831617835250505050611ee0565b50565b60007f01ffc9a7000000000000000000000000000000000000000000000000000000007bffffffffffffffffffffffffffffffffffffffffffffffffffffffff1916827bffffffffffffffffffffffffffffffffffffffffffffffffffffffff1916149050919050565b60008073ffffffffffffffffffffffffffffffffffffffff166002600084815260200190815260200160002060009054906101000a900473ffffffffffffffffffffffffffffffffffffffff1673ffffffffffffffffffffffffffffffffffffffff1614159050919050565b600033905090565b816004600083815260200190815260200160002060006101000a81548173ffffffffffffffffffffffffffffffffffffffff021916908373ffffffffffffffffffffffffffffffffffffffff160217905550808273ffffffffffffffffffffffffffffffffffffffff1661134a83610988565b73ffffffffffffffffffffffffffffffffffffffff167f8c5be1e5ebec7d5bd14f71427d1e84f3dd0314c0f7b2291e5b200ac8c7c3b92560405160405180910390a45050565b600061139b82611263565b6113da576040517f08c379a00000000000000000000000000000000000000000000000000000000081526004016113d190613394565b60405180910390fd5b60006113e583610988565b90508073ffffffffffffffffffffffffffffffffffffffff168473ffffffffffffffffffffffffffffffffffffffff16148061145457508373ffffffffffffffffffffffffffffffffffffffff1661143c8461052f565b73ffffffffffffffffffffffffffffffffffffffff16145b80611465575061146481856110bb565b5b91505092915050565b8273ffffffffffffffffffffffffffffffffffffffff1661148e82610988565b73ffffffffffffffffffffffffffffffffffffffff16146114e4576040517f08c379a00000000000000000000000000000000000000000000000000000000081526004016114db90613494565b60405180910390fd5b600073ffffffffffffffffffffffffffffffffffffffff168273ffffffffffffffffffffffffffffffffffffffff161415611554576040517f08c379a000000000000000000000000000000000000000000000000000000000815260040161154b90613354565b60405180910390fd5b61155f838383611f09565b61156a6000826112d7565b6001600360008573ffffffffffffffffffffffffffffffffffffffff1673ffffffffffffffffffffffffffffffffffffffff16815260200190815260200160002060008282546115ba91906136c9565b925050819055506001600360008473ffffffffffffffffffffffffffffffffffffffff1673ffffffffffffffffffffffffffffffffffffffff168152602001908152602001600020600082825461161191906135e8565b92505081905550816002600083815260200190815260200160002060006101000a81548173ffffffffffffffffffffffffffffffffffffffff021916908373ffffffffffffffffffffffffffffffffffffffff160217905550808273ffffffffffffffffffffffffffffffffffffffff168473ffffffffffffffffffffffffffffffffffffffff167fddf252ad1be2c89b69c2b068fc378daa952ba7f163c4a11628f55a4df523b3ef60405160405180910390a4505050565b60606000821415611712576040518060400160405280600181526020017f30000000000000000000000000000000000000000000000000000000000000008152509050611872565b600082905060005b6000821461174457808061172d906137e5565b915050600a8261173d919061363e565b915061171a565b60008167ffffffffffffffff811115611786577f4e487b7100000000000000000000000000000000000000000000000000000000600052604160045260246000fd5b6040519080825280601f01601f1916602001820160405280156117b85781602001600182028036833780820191505090505b5090505b6000851461186b576001826117d191906136c9565b9150600a856117e0919061382e565b60306117ec91906135e8565b60f81b818381518110611828577f4e487b7100000000000000000000000000000000000000000000000000000000600052603260045260246000fd5b60200101907effffffffffffffffffffffffffffffffffffffffffffffffffffffffffffff1916908160001a905350600a85611864919061363e565b94506117bc565b8093505050505b919050565b60008160405160200161188a9190613066565b6040516020818303038152906040528051906020012060001c9050919050565b8173ffffffffffffffffffffffffffffffffffffffff168373ffffffffffffffffffffffffffffffffffffffff161415611919576040517f08c379a000000000000000000000000000000000000000000000000000000000815260040161191090613374565b60405180910390fd5b80600560008573ffffffffffffffffffffffffffffffffffffffff1673ffffffffffffffffffffffffffffffffffffffff16815260200190815260200160002060008473ffffffffffffffffffffffffffffffffffffffff1673ffffffffffffffffffffffffffffffffffffffff16815260200190815260200160002060006101000a81548160ff0219169083151502179055508173ffffffffffffffffffffffffffffffffffffffff168373ffffffffffffffffffffffffffffffffffffffff167f17307eab39ab6107e8899845ad3d59bd9653f200f220920489ca2b5937696c3183604051611a0a9190613269565b60405180910390a3505050565b611a2284848461146e565b611a2e84848484611f0e565b611a6d576040517f08c379a0000000000000000000000000000000000000000000000000000000008152600401611a6490613314565b60405180910390fd5b50505050565b606060405180602001604052806000815250905090565b6060611a9582611263565b611ad4576040517f08c379a0000000000000000000000000000000000000000000000000000000008152600401611acb906134b4565b60405180910390fd5b6000611ade611a73565b90506000815111611afe5760405180602001604052806000815250611b29565b80611b08846116ca565b604051602001611b1992919061307d565b6040516020818303038152906040525b915050919050565b600081600001549050919050565b60606000825190506000811415611b685760405180602001604052806000815250915050611cf8565b60006003600283611b7991906135e8565b611b83919061363e565b6004611b8f919061366f565b90506000602082611ba091906135e8565b67ffffffffffffffff811115611bdf577f4e487b7100000000000000000000000000000000000000000000000000000000600052604160045260246000fd5b6040519080825280601f01601f191660200182016040528015611c115781602001600182028036833780820191505090505b50905060006040518060600160405280604081526020016139ae604091399050600181016020830160005b86811015611cb55760038101905062ffffff818a015116603f8160121c168401518060081b905060ff603f83600c1c1686015116810190508060081b905060ff603f8360061c1686015116810190508060081b905060ff603f831686015116810190508060e01b90508084526004840193505050611c3c565b506003860660018114611ccf5760028114611cdf57611cea565b613d3d60f01b6002830352611cea565b603d60f81b60018303525b508484525050819450505050505b919050565b611d178282604051806020016040528060008152506120a5565b5050565b611d2482611263565b611d63576040517f08c379a0000000000000000000000000000000000000000000000000000000008152600401611d5a90613414565b60405180910390fd5b80600660008481526020019081526020016000209080519060200190611d8a9291906122e1565b505050565b611e29838383604051602401611da7939291906132d6565b6040516020818303038152906040527fe3849f79000000000000000000000000000000000000000000000000000000007bffffffffffffffffffffffffffffffffffffffffffffffffffffffff19166020820180517bffffffffffffffffffffffffffffffffffffffffffffffffffffffff8381831617835250505050611ee0565b505050565b6001816000016000828254019250508190555050565b611edc8282604051602401611e5a9291906132a6565b6040516020818303038152906040527f9710a9d0000000000000000000000000000000000000000000000000000000007bffffffffffffffffffffffffffffffffffffffffffffffffffffffff19166020820180517bffffffffffffffffffffffffffffffffffffffffffffffffffffffff8381831617835250505050611ee0565b5050565b60008151905060006a636f6e736f6c652e6c6f679050602083016000808483855afa5050505050565b505050565b6000611f2f8473ffffffffffffffffffffffffffffffffffffffff16612100565b15612098578373ffffffffffffffffffffffffffffffffffffffff1663150b7a02611f586112cf565b8786866040518563ffffffff1660e01b8152600401611f7a94939291906131f4565b602060405180830381600087803b158015611f9457600080fd5b505af1925050508015611fc557506040513d601f19601f82011682018060405250810190611fc29190612625565b60015b612048573d8060008114611ff5576040519150601f19603f3d011682016040523d82523d6000602084013e611ffa565b606091505b50600081511415612040576040517f08c379a000000000000000000000000000000000000000000000000000000000815260040161203790613314565b60405180910390fd5b805181602001fd5b63150b7a0260e01b7bffffffffffffffffffffffffffffffffffffffffffffffffffffffff1916817bffffffffffffffffffffffffffffffffffffffffffffffffffffffff19161491505061209d565b600190505b949350505050565b6120af8383612113565b6120bc6000848484611f0e565b6120fb576040517f08c379a00000000000000000000000000000000000000000000000000000000081526004016120f290613314565b60405180910390fd5b505050565b600080823b905060008111915050919050565b600073ffffffffffffffffffffffffffffffffffffffff168273ffffffffffffffffffffffffffffffffffffffff161415612183576040517f08c379a000000000000000000000000000000000000000000000000000000000815260040161217a90613434565b60405180910390fd5b61218c81611263565b156121cc576040517f08c379a00000000000000000000000000000000000000000000000000000000081526004016121c390613334565b60405180910390fd5b6121d860008383611f09565b6001600360008473ffffffffffffffffffffffffffffffffffffffff1673ffffffffffffffffffffffffffffffffffffffff168152602001908152602001600020600082825461222891906135e8565b92505081905550816002600083815260200190815260200160002060006101000a81548173ffffffffffffffffffffffffffffffffffffffff021916908373ffffffffffffffffffffffffffffffffffffffff160217905550808273ffffffffffffffffffffffffffffffffffffffff16600073ffffffffffffffffffffffffffffffffffffffff167fddf252ad1be2c89b69c2b068fc378daa952ba7f163c4a11628f55a4df523b3ef60405160405180910390a45050565b8280546122ed906137b3565b90600052602060002090601f01602090048101928261230f5760008555612356565b82601f1061232857805160ff1916838001178555612356565b82800160010185558215612356579182015b8281111561235557825182559160200191906001019061233a565b5b5090506123639190612367565b5090565b5b80821115612380576000816000905550600101612368565b5090565b600061239761239284613560565b61352f565b9050828152602081018484840111156123af57600080fd5b6123ba848285613771565b509392505050565b6000813590506123d18161392c565b92915050565b6000813590506123e681613943565b92915050565b6000813590506123fb8161395a565b92915050565b6000815190506124108161395a565b92915050565b600082601f83011261242757600080fd5b8135612437848260208601612384565b91505092915050565b60008135905061244f81613971565b92915050565b60006020828403121561246757600080fd5b6000612475848285016123c2565b91505092915050565b6000806040838503121561249157600080fd5b600061249f858286016123c2565b92505060206124b0858286016123c2565b9150509250929050565b6000806000606084860312156124cf57600080fd5b60006124dd868287016123c2565b93505060206124ee868287016123c2565b92505060406124ff86828701612440565b9150509250925092565b6000806000806080858703121561251f57600080fd5b600061252d878288016123c2565b945050602061253e878288016123c2565b935050604061254f87828801612440565b925050606085013567ffffffffffffffff81111561256c57600080fd5b61257887828801612416565b91505092959194509250565b6000806040838503121561259757600080fd5b60006125a5858286016123c2565b92505060206125b6858286016123d7565b9150509250929050565b600080604083850312156125d357600080fd5b60006125e1858286016123c2565b92505060206125f285828601612440565b9150509250929050565b60006020828403121561260e57600080fd5b600061261c848285016123ec565b91505092915050565b60006020828403121561263757600080fd5b600061264584828501612401565b91505092915050565b60006020828403121561266057600080fd5b600061266e84828501612440565b91505092915050565b612680816136fd565b82525050565b61268f8161370f565b82525050565b60006126a0826135a5565b6126aa81856135bb565b93506126ba818560208601613780565b6126c38161391b565b840191505092915050565b60006126d9826135b0565b6126e381856135cc565b93506126f3818560208601613780565b6126fc8161391b565b840191505092915050565b6000612712826135b0565b61271c81856135dd565b935061272c818560208601613780565b80840191505092915050565b60008154612745816137b3565b61274f81866135dd565b9450600182166000811461276a576001811461277b576127ae565b60ff198316865281860193506127ae565b61278485613590565b60005b838110156127a657815481890152600182019150602081019050612787565b838801955050505b50505092915050565b60006127c46025836135dd565b91507f68747470733a2f2f6e6674707265766965772e30786465762e636f6465732f3f60008301527f636f64653d0000000000000000000000000000000000000000000000000000006020830152602582019050919050565b600061282a6032836135cc565b91507f4552433732313a207472616e7366657220746f206e6f6e20455243373231526560008301527f63656976657220696d706c656d656e74657200000000000000000000000000006020830152604082019050919050565b6000612890601c836135cc565b91507f4552433732313a20746f6b656e20616c7265616479206d696e746564000000006000830152602082019050919050565b60006128d06024836135cc565b91507f4552433732313a207472616e7366657220746f20746865207a65726f2061646460008301527f72657373000000000000000000000000000000000000000000000000000000006020830152604082019050919050565b60006129366019836135cc565b91507f4552433732313a20617070726f766520746f2063616c6c6572000000000000006000830152602082019050919050565b6000612976602c836135cc565b91507f4552433732313a206f70657261746f7220717565727920666f72206e6f6e657860008301527f697374656e7420746f6b656e00000000000000000000000000000000000000006020830152604082019050919050565b60006129dc600d836135dd565b91507f3c2f746578743e3c2f7376673e000000000000000000000000000000000000006000830152600d82019050919050565b6000612a1c6038836135cc565b91507f4552433732313a20617070726f76652063616c6c6572206973206e6f74206f7760008301527f6e6572206e6f7220617070726f76656420666f7220616c6c00000000000000006020830152604082019050919050565b6000612a826058836135dd565b91507f222c20226465736372697074696f6e223a20224120636f6c6c656374696f6e2060008301527f6f66206f70656e696e67206d6f7665732e222c2022696d616765223a2022646160208301527f74613a696d6167652f7376672b786d6c3b6261736536342c00000000000000006040830152605882019050919050565b6000612b0e602a836135cc565b91507f4552433732313a2062616c616e636520717565727920666f7220746865207a6560008301527f726f2061646472657373000000000000000000000000000000000000000000006020830152604082019050919050565b6000612b746029836135cc565b91507f4552433732313a206f776e657220717565727920666f72206e6f6e657869737460008301527f656e7420746f6b656e00000000000000000000000000000000000000000000006020830152604082019050919050565b6000612bda602e836135cc565b91507f45524337323155524953746f726167653a2055524920736574206f66206e6f6e60008301527f6578697374656e7420746f6b656e0000000000000000000000000000000000006020830152604082019050919050565b6000612c40600a836135dd565b91507f424c41434b5f4d4f5645000000000000000000000000000000000000000000006000830152600a82019050919050565b6000612c806002836135dd565b91507f227d0000000000000000000000000000000000000000000000000000000000006000830152600282019050919050565b6000612cc06020836135cc565b91507f4552433732313a206d696e7420746f20746865207a65726f20616464726573736000830152602082019050919050565b6000612d006031836135cc565b91507f45524337323155524953746f726167653a2055524920717565727920666f722060008301527f6e6f6e6578697374656e7420746f6b656e0000000000000000000000000000006020830152604082019050919050565b6000612d66602c836135cc565b91507f4552433732313a20617070726f76656420717565727920666f72206e6f6e657860008301527f697374656e7420746f6b656e00000000000000000000000000000000000000006020830152604082019050919050565b6000612dcc6029836135cc565b91507f4552433732313a207472616e73666572206f6620746f6b656e2074686174206960008301527f73206e6f74206f776e00000000000000000000000000000000000000000000006020830152604082019050919050565b6000612e32602f836135cc565b91507f4552433732314d657461646174613a2055524920717565727920666f72206e6f60008301527f6e6578697374656e7420746f6b656e00000000000000000000000000000000006020830152604082019050919050565b6000612e98600a836135dd565b91507f7b226e616d65223a2022000000000000000000000000000000000000000000006000830152600a82019050919050565b6000612ed86021836135cc565b91507f4552433732313a20617070726f76616c20746f2063757272656e74206f776e6560008301527f72000000000000000000000000000000000000000000000000000000000000006020830152604082019050919050565b6000612f3e601d836135dd565b91507f646174613a6170706c69636174696f6e2f6a736f6e3b6261736536342c0000006000830152601d82019050919050565b6000612f7e600a836135dd565b91507f57484954455f4d4f5645000000000000000000000000000000000000000000006000830152600a82019050919050565b6000612fbe6031836135cc565b91507f4552433732313a207472616e736665722063616c6c6572206973206e6f74206f60008301527f776e6572206e6f7220617070726f7665640000000000000000000000000000006020830152604082019050919050565b60006130246005836135dd565b91507f434f4c4f520000000000000000000000000000000000000000000000000000006000830152600582019050919050565b61306081613767565b82525050565b60006130728284612707565b915081905092915050565b60006130898285612707565b91506130958284612707565b91508190509392505050565b60006130ad8287612738565b91506130b98286612707565b91506130c58285612738565b91506130d18284612707565b91506130dc826129cf565b915081905095945050505050565b60006130f5826127b7565b91506131018284612707565b915081905092915050565b600061311782612c33565b91506131238284612707565b915081905092915050565b600061313982612e8b565b91506131458285612707565b915061315082612a75565b915061315c8284612707565b915061316782612c73565b91508190509392505050565b600061317e82612f31565b915061318a8284612707565b915081905092915050565b60006131a082612f71565b91506131ac8284612707565b915081905092915050565b60006131c282613017565b91506131ce8284612707565b915081905092915050565b60006020820190506131ee6000830184612677565b92915050565b60006080820190506132096000830187612677565b6132166020830186612677565b6132236040830185613057565b81810360608301526132358184612695565b905095945050505050565b60006040820190506132556000830185612677565b6132626020830184613057565b9392505050565b600060208201905061327e6000830184612686565b92915050565b6000602082019050818103600083015261329e81846126ce565b905092915050565b600060408201905081810360008301526132c081856126ce565b90506132cf6020830184613057565b9392505050565b600060608201905081810360008301526132f081866126ce565b90506132ff6020830185613057565b61330c6040830184612677565b949350505050565b6000602082019050818103600083015261332d8161281d565b9050919050565b6000602082019050818103600083015261334d81612883565b9050919050565b6000602082019050818103600083015261336d816128c3565b9050919050565b6000602082019050818103600083015261338d81612929565b9050919050565b600060208201905081810360008301526133ad81612969565b9050919050565b600060208201905081810360008301526133cd81612a0f565b9050919050565b600060208201905081810360008301526133ed81612b01565b9050919050565b6000602082019050818103600083015261340d81612b67565b9050919050565b6000602082019050818103600083015261342d81612bcd565b9050919050565b6000602082019050818103600083015261344d81612cb3565b9050919050565b6000602082019050818103600083015261346d81612cf3565b9050919050565b6000602082019050818103600083015261348d81612d59565b9050919050565b600060208201905081810360008301526134ad81612dbf565b9050919050565b600060208201905081810360008301526134cd81612e25565b9050919050565b600060208201905081810360008301526134ed81612ecb565b9050919050565b6000602082019050818103600083015261350d81612fb1565b9050919050565b60006020820190506135296000830184613057565b92915050565b6000604051905081810181811067ffffffffffffffff82111715613556576135556138ec565b5b8060405250919050565b600067ffffffffffffffff82111561357b5761357a6138ec565b5b601f19601f8301169050602081019050919050565b60008190508160005260206000209050919050565b600081519050919050565b600081519050919050565b600082825260208201905092915050565b600082825260208201905092915050565b600081905092915050565b60006135f382613767565b91506135fe83613767565b9250827fffffffffffffffffffffffffffffffffffffffffffffffffffffffffffffffff038211156136335761363261385f565b5b828201905092915050565b600061364982613767565b915061365483613767565b9250826136645761366361388e565b5b828204905092915050565b600061367a82613767565b915061368583613767565b9250817fffffffffffffffffffffffffffffffffffffffffffffffffffffffffffffffff04831182151516156136be576136bd61385f565b5b828202905092915050565b60006136d482613767565b91506136df83613767565b9250828210156136f2576136f161385f565b5b828203905092915050565b600061370882613747565b9050919050565b60008115159050919050565b60007fffffffff0000000000000000000000000000000000000000000000000000000082169050919050565b600073ffffffffffffffffffffffffffffffffffffffff82169050919050565b6000819050919050565b82818337600083830152505050565b60005b8381101561379e578082015181840152602081019050613783565b838111156137ad576000848401525b50505050565b600060028204905060018216806137cb57607f821691505b602082108114156137df576137de6138bd565b5b50919050565b60006137f082613767565b91507fffffffffffffffffffffffffffffffffffffffffffffffffffffffffffffffff8214156138235761382261385f565b5b600182019050919050565b600061383982613767565b915061384483613767565b9250826138545761385361388e565b5b828206905092915050565b7f4e487b7100000000000000000000000000000000000000000000000000000000600052601160045260246000fd5b7f4e487b7100000000000000000000000000000000000000000000000000000000600052601260045260246000fd5b7f4e487b7100000000000000000000000000000000000000000000000000000000600052602260045260246000fd5b7f4e487b7100000000000000000000000000000000000000000000000000000000600052604160045260246000fd5b6000601f19601f8301169050919050565b613935816136fd565b811461394057600080fd5b50565b61394c8161370f565b811461395757600080fd5b50565b6139638161371b565b811461396e57600080fd5b50565b61397a81613767565b811461398557600080fd5b5056fe416e204e465420772f20494420257320686173206265656e206d696e74656420746f2025734142434445464748494a4b4c4d4e4f505152535455565758595a6162636465666768696a6b6c6d6e6f707172737475767778797a303132333435363738392b2fa26469706673582212202c17d611d9ec7f35000ecc434121d06af790117b706a099b00498e8d9ee8484a64736f6c634300080000333c73766720786d6c6e733d27687474703a2f2f7777772e77332e6f72672f323030302f73766727207072657365727665417370656374526174696f3d27784d696e594d696e206d656574272076696577426f783d273020302033353020333530273e3c7374796c653e2e62617365207b2066696c6c3a2077686974653b20666f6e742d66616d696c793a2073657269663b20666f6e742d73697a653a20323470783b207d3c2f7374796c653e3c726563742077696474683d273130302527206865696768743d2731303025272066696c6c3d27272f3e3c7465787420783d273530252720793d273530252720636c6173733d27626173652720646f6d696e616e742d626173656c696e653d276d6964646c652720746578742d616e63686f723d276d6964646c65273e",
  "linkReferences": {},
  "deployedLinkReferences": {}
}